{"contracts/sushiswap.sol":{"SushiSwapV2Swap":{"abi":[{"inputs":[],"name":"SUSHI_FACTORY","outputs":[{"internalType":"address","name":"","type":"address"}],"stateMutability":"view","type":"function"},{"inputs":[],"name":"SUSHI_ROUTER","outputs":[{"internalType":"address","name":"","type":"address"}],"stateMutability":"view","type":"function"},{"inputs":[],"name":"USDC","outputs":[{"internalType":"address","name":"","type":"address"}],"stateMutability":"view","type":"function"},{"inputs":[],"name":"WMATIC","outputs":[{"internalType":"address","name":"","type":"address"}],"stateMutability":"view","type":"function"},{"inputs":[{"internalType":"address","name":"_fromToken","type":"address"},{"internalType":"address","name":"_toToken","type":"address"},{"internalType":"uint256","name":"_amountIn","type":"uint256"}],"name":"placeTrade","outputs":[{"internalType":"uint256","name":"","type":"uint256"}],"stateMutability":"nonpayable","type":"function"}],"evm":{"bytecode":{"linkReferences":{},"object":"608060405262015180420160005534801561001957600080fd5b50610b4d806100296000396000f3fe608060405234801561001057600080fd5b50600436106100575760003560e01c80630c24f4fa1461005c5780634d95cad9146100905780637cb54a7f146100c457806389a3027114610146578063b753bb471461017a575b600080fd5b6100646101ae565b604051808273ffffffffffffffffffffffffffffffffffffffff16815260200191505060405180910390f35b6100986101c6565b604051808273ffffffffffffffffffffffffffffffffffffffff16815260200191505060405180910390f35b610130600480360360608110156100da57600080fd5b81019080803573ffffffffffffffffffffffffffffffffffffffff169060200190929190803573ffffffffffffffffffffffffffffffffffffffff169060200190929190803590602001909291905050506101de565b6040518082815260200191505060405180910390f35b61014e6109b7565b604051808273ffffffffffffffffffffffffffffffffffffffff16815260200191505060405180910390f35b6101826109cf565b604051808273ffffffffffffffffffffffffffffffffffffffff16815260200191505060405180910390f35b731b02da8cb0d097eb8d57a175b88c7d8b4799750681565b730d500b1d8e8ef31e21c99d1db9a6444d3adf127081565b60008073c35dadb65012ec5796536bd9864ed8773abc74c473ffffffffffffffffffffffffffffffffffffffff1663e6a4390586866040518363ffffffff1660e01b8152600401808373ffffffffffffffffffffffffffffffffffffffff1681526020018273ffffffffffffffffffffffffffffffffffffffff1681526020019250505060206040518083038186803b15801561027a57600080fd5b505afa15801561028e573d6000803e3d6000fd5b505050506040513d60208110156102a457600080fd5b81019080805190602001909291905050509050600073ffffffffffffffffffffffffffffffffffffffff168173ffffffffffffffffffffffffffffffffffffffff16141561035a576040517f08c379a00000000000000000000000000000000000000000000000000000000081526004018080602001828103825260138152602001807f506f6f6c20646f6573206e6f742065786973740000000000000000000000000081525060200191505060405180910390fd5b6000600267ffffffffffffffff8111801561037457600080fd5b506040519080825280602002602001820160405280156103a35781602001602082028036833780820191505090505b50905085816000815181106103b457fe5b602002602001019073ffffffffffffffffffffffffffffffffffffffff16908173ffffffffffffffffffffffffffffffffffffffff168152505084816001815181106103fc57fe5b602002602001019073ffffffffffffffffffffffffffffffffffffffff16908173ffffffffffffffffffffffffffffffffffffffff16815250506000731b02da8cb0d097eb8d57a175b88c7d8b4799750673ffffffffffffffffffffffffffffffffffffffff1663d06ca61f86846040518363ffffffff1660e01b81526004018083815260200180602001828103825283818151815260200191508051906020019060200280838360005b838110156104c25780820151818401526020810190506104a7565b50505050905001935050505060006040518083038186803b1580156104e657600080fd5b505afa1580156104fa573d6000803e3d6000fd5b505050506040513d6000823e3d601f19601f82011682018060405250602081101561052457600080fd5b810190808051604051939291908464010000000082111561054457600080fd5b8382019150602082018581111561055a57600080fd5b825186602082028301116401000000008211171561057757600080fd5b8083526020830192505050908051906020019060200280838360005b838110156105ae578082015181840152602081019050610593565b505050509050016040525050506001815181106105c757fe5b602002602001015190506106106040518060400160405280600e81526020017f616d6f756e745265717569726564000000000000000000000000000000000000815250826109e7565b8673ffffffffffffffffffffffffffffffffffffffff166323b872dd3330886040518463ffffffff1660e01b8152600401808473ffffffffffffffffffffffffffffffffffffffff1681526020018373ffffffffffffffffffffffffffffffffffffffff1681526020018281526020019350505050602060405180830381600087803b15801561069f57600080fd5b505af11580156106b3573d6000803e3d6000fd5b505050506040513d60208110156106c957600080fd5b8101908080519060200190929190505050508673ffffffffffffffffffffffffffffffffffffffff1663095ea7b3731b02da8cb0d097eb8d57a175b88c7d8b47997506876040518363ffffffff1660e01b8152600401808373ffffffffffffffffffffffffffffffffffffffff16815260200182815260200192505050602060405180830381600087803b15801561076057600080fd5b505af1158015610774573d6000803e3d6000fd5b505050506040513d602081101561078a57600080fd5b8101908080519060200190929190505050506000731b02da8cb0d097eb8d57a175b88c7d8b4799750673ffffffffffffffffffffffffffffffffffffffff166338ed173987600086336000546040518663ffffffff1660e01b815260040180868152602001858152602001806020018473ffffffffffffffffffffffffffffffffffffffff168152602001838152602001828103825285818151815260200191508051906020019060200280838360005b8381101561085657808201518184015260208101905061083b565b505050509050019650505050505050600060405180830381600087803b15801561087f57600080fd5b505af1158015610893573d6000803e3d6000fd5b505050506040513d6000823e3d601f19601f8201168201806040525060208110156108bd57600080fd5b81019080805160405193929190846401000000008211156108dd57600080fd5b838201915060208201858111156108f357600080fd5b825186602082028301116401000000008211171561091057600080fd5b8083526020830192505050908051906020019060200280838360005b8381101561094757808201518184015260208101905061092c565b5050505090500160405250505060018151811061096057fe5b602002602001015190506109a96040518060400160405280600e81526020017f616d6f756e745265636965766564000000000000000000000000000000000000815250826109e7565b809450505050509392505050565b732791bca1f2de4661ed88a30c99a7a9449aa8417481565b73c35dadb65012ec5796536bd9864ed8773abc74c481565b610aea82826040516024018080602001838152602001828103825284818151815260200191508051906020019080838360005b83811015610a35578082015181840152602081019050610a1a565b50505050905090810190601f168015610a625780820380516001836020036101000a031916815260200191505b5093505050506040516020818303038152906040527fb60e72cc000000000000000000000000000000000000000000000000000000007bffffffffffffffffffffffffffffffffffffffffffffffffffffffff19166020820180517bffffffffffffffffffffffffffffffffffffffffffffffffffffffff8381831617835250505050610aee565b5050565b60008151905060006a636f6e736f6c652e6c6f679050602083016000808483855afa505050505056fea2646970667358221220266a3862dfaa8642c3e7f3d8840aa43efaf467e7a7f09ccfec8eaa32dc87cbab64736f6c63430007060033","opcodes":"PUSH1 0x80 PUSH1 0x40 MSTORE PUSH3 0x15180 TIMESTAMP ADD PUSH1 0x0 SSTORE CALLVALUE DUP1 ISZERO PUSH2 0x19 JUMPI PUSH1 0x0 DUP1 REVERT JUMPDEST POP PUSH2 0xB4D DUP1 PUSH2 0x29 PUSH1 0x0 CODECOPY PUSH1 0x0 RETURN INVALID PUSH1 0x80 PUSH1 0x40 MSTORE CALLVALUE DUP1 ISZERO PUSH2 0x10 JUMPI PUSH1 0x0 DUP1 REVERT JUMPDEST POP PUSH1 0x4 CALLDATASIZE LT PUSH2 0x57 JUMPI PUSH1 0x0 CALLDATALOAD PUSH1 0xE0 SHR DUP1 PUSH4 0xC24F4FA EQ PUSH2 0x5C JUMPI DUP1 PUSH4 0x4D95CAD9 EQ PUSH2 0x90 JUMPI DUP1 PUSH4 0x7CB54A7F EQ PUSH2 0xC4 JUMPI DUP1 PUSH4 0x89A30271 EQ PUSH2 0x146 JUMPI DUP1 PUSH4 0xB753BB47 EQ PUSH2 0x17A JUMPI JUMPDEST PUSH1 0x0 DUP1 REVERT JUMPDEST PUSH2 0x64 PUSH2 0x1AE JUMP JUMPDEST PUSH1 0x40 MLOAD DUP1 DUP3 PUSH20 0xFFFFFFFFFFFFFFFFFFFFFFFFFFFFFFFFFFFFFFFF AND DUP2 MSTORE PUSH1 0x20 ADD SWAP2 POP POP PUSH1 0x40 MLOAD DUP1 SWAP2 SUB SWAP1 RETURN JUMPDEST PUSH2 0x98 PUSH2 0x1C6 JUMP JUMPDEST PUSH1 0x40 MLOAD DUP1 DUP3 PUSH20 0xFFFFFFFFFFFFFFFFFFFFFFFFFFFFFFFFFFFFFFFF AND DUP2 MSTORE PUSH1 0x20 ADD SWAP2 POP POP PUSH1 0x40 MLOAD DUP1 SWAP2 SUB SWAP1 RETURN JUMPDEST PUSH2 0x130 PUSH1 0x4 DUP1 CALLDATASIZE SUB PUSH1 0x60 DUP2 LT ISZERO PUSH2 0xDA JUMPI PUSH1 0x0 DUP1 REVERT JUMPDEST DUP2 ADD SWAP1 DUP1 DUP1 CALLDATALOAD PUSH20 0xFFFFFFFFFFFFFFFFFFFFFFFFFFFFFFFFFFFFFFFF AND SWAP1 PUSH1 0x20 ADD SWAP1 SWAP3 SWAP2 SWAP1 DUP1 CALLDATALOAD PUSH20 0xFFFFFFFFFFFFFFFFFFFFFFFFFFFFFFFFFFFFFFFF AND SWAP1 PUSH1 0x20 ADD SWAP1 SWAP3 SWAP2 SWAP1 DUP1 CALLDATALOAD SWAP1 PUSH1 0x20 ADD SWAP1 SWAP3 SWAP2 SWAP1 POP POP POP PUSH2 0x1DE JUMP JUMPDEST PUSH1 0x40 MLOAD DUP1 DUP3 DUP2 MSTORE PUSH1 0x20 ADD SWAP2 POP POP PUSH1 0x40 MLOAD DUP1 SWAP2 SUB SWAP1 RETURN JUMPDEST PUSH2 0x14E PUSH2 0x9B7 JUMP JUMPDEST PUSH1 0x40 MLOAD DUP1 DUP3 PUSH20 0xFFFFFFFFFFFFFFFFFFFFFFFFFFFFFFFFFFFFFFFF AND DUP2 MSTORE PUSH1 0x20 ADD SWAP2 POP POP PUSH1 0x40 MLOAD DUP1 SWAP2 SUB SWAP1 RETURN JUMPDEST PUSH2 0x182 PUSH2 0x9CF JUMP JUMPDEST PUSH1 0x40 MLOAD DUP1 DUP3 PUSH20 0xFFFFFFFFFFFFFFFFFFFFFFFFFFFFFFFFFFFFFFFF AND DUP2 MSTORE PUSH1 0x20 ADD SWAP2 POP POP PUSH1 0x40 MLOAD DUP1 SWAP2 SUB SWAP1 RETURN JUMPDEST PUSH20 0x1B02DA8CB0D097EB8D57A175B88C7D8B47997506 DUP2 JUMP JUMPDEST PUSH20 0xD500B1D8E8EF31E21C99D1DB9A6444D3ADF1270 DUP2 JUMP JUMPDEST PUSH1 0x0 DUP1 PUSH20 0xC35DADB65012EC5796536BD9864ED8773ABC74C4 PUSH20 0xFFFFFFFFFFFFFFFFFFFFFFFFFFFFFFFFFFFFFFFF AND PUSH4 0xE6A43905 DUP7 DUP7 PUSH1 0x40 MLOAD DUP4 PUSH4 0xFFFFFFFF AND PUSH1 0xE0 SHL DUP2 MSTORE PUSH1 0x4 ADD DUP1 DUP4 PUSH20 0xFFFFFFFFFFFFFFFFFFFFFFFFFFFFFFFFFFFFFFFF AND DUP2 MSTORE PUSH1 0x20 ADD DUP3 PUSH20 0xFFFFFFFFFFFFFFFFFFFFFFFFFFFFFFFFFFFFFFFF AND DUP2 MSTORE PUSH1 0x20 ADD SWAP3 POP POP POP PUSH1 0x20 PUSH1 0x40 MLOAD DUP1 DUP4 SUB DUP2 DUP7 DUP1 EXTCODESIZE ISZERO DUP1 ISZERO PUSH2 0x27A JUMPI PUSH1 0x0 DUP1 REVERT JUMPDEST POP GAS STATICCALL ISZERO DUP1 ISZERO PUSH2 0x28E JUMPI RETURNDATASIZE PUSH1 0x0 DUP1 RETURNDATACOPY RETURNDATASIZE PUSH1 0x0 REVERT JUMPDEST POP POP POP POP PUSH1 0x40 MLOAD RETURNDATASIZE PUSH1 0x20 DUP2 LT ISZERO PUSH2 0x2A4 JUMPI PUSH1 0x0 DUP1 REVERT JUMPDEST DUP2 ADD SWAP1 DUP1 DUP1 MLOAD SWAP1 PUSH1 0x20 ADD SWAP1 SWAP3 SWAP2 SWAP1 POP POP POP SWAP1 POP PUSH1 0x0 PUSH20 0xFFFFFFFFFFFFFFFFFFFFFFFFFFFFFFFFFFFFFFFF AND DUP2 PUSH20 0xFFFFFFFFFFFFFFFFFFFFFFFFFFFFFFFFFFFFFFFF AND EQ ISZERO PUSH2 0x35A JUMPI PUSH1 0x40 MLOAD PUSH32 0x8C379A000000000000000000000000000000000000000000000000000000000 DUP2 MSTORE PUSH1 0x4 ADD DUP1 DUP1 PUSH1 0x20 ADD DUP3 DUP2 SUB DUP3 MSTORE PUSH1 0x13 DUP2 MSTORE PUSH1 0x20 ADD DUP1 PUSH32 0x506F6F6C20646F6573206E6F7420657869737400000000000000000000000000 DUP2 MSTORE POP PUSH1 0x20 ADD SWAP2 POP POP PUSH1 0x40 MLOAD DUP1 SWAP2 SUB SWAP1 REVERT JUMPDEST PUSH1 0x0 PUSH1 0x2 PUSH8 0xFFFFFFFFFFFFFFFF DUP2 GT DUP1 ISZERO PUSH2 0x374 JUMPI PUSH1 0x0 DUP1 REVERT JUMPDEST POP PUSH1 0x40 MLOAD SWAP1 DUP1 DUP3 MSTORE DUP1 PUSH1 0x20 MUL PUSH1 0x20 ADD DUP3 ADD PUSH1 0x40 MSTORE DUP1 ISZERO PUSH2 0x3A3 JUMPI DUP2 PUSH1 0x20 ADD PUSH1 0x20 DUP3 MUL DUP1 CALLDATASIZE DUP4 CALLDATACOPY DUP1 DUP3 ADD SWAP2 POP POP SWAP1 POP JUMPDEST POP SWAP1 POP DUP6 DUP2 PUSH1 0x0 DUP2 MLOAD DUP2 LT PUSH2 0x3B4 JUMPI INVALID JUMPDEST PUSH1 0x20 MUL PUSH1 0x20 ADD ADD SWAP1 PUSH20 0xFFFFFFFFFFFFFFFFFFFFFFFFFFFFFFFFFFFFFFFF AND SWAP1 DUP2 PUSH20 0xFFFFFFFFFFFFFFFFFFFFFFFFFFFFFFFFFFFFFFFF AND DUP2 MSTORE POP POP DUP5 DUP2 PUSH1 0x1 DUP2 MLOAD DUP2 LT PUSH2 0x3FC JUMPI INVALID JUMPDEST PUSH1 0x20 MUL PUSH1 0x20 ADD ADD SWAP1 PUSH20 0xFFFFFFFFFFFFFFFFFFFFFFFFFFFFFFFFFFFFFFFF AND SWAP1 DUP2 PUSH20 0xFFFFFFFFFFFFFFFFFFFFFFFFFFFFFFFFFFFFFFFF AND DUP2 MSTORE POP POP PUSH1 0x0 PUSH20 0x1B02DA8CB0D097EB8D57A175B88C7D8B47997506 PUSH20 0xFFFFFFFFFFFFFFFFFFFFFFFFFFFFFFFFFFFFFFFF AND PUSH4 0xD06CA61F DUP7 DUP5 PUSH1 0x40 MLOAD DUP4 PUSH4 0xFFFFFFFF AND PUSH1 0xE0 SHL DUP2 MSTORE PUSH1 0x4 ADD DUP1 DUP4 DUP2 MSTORE PUSH1 0x20 ADD DUP1 PUSH1 0x20 ADD DUP3 DUP2 SUB DUP3 MSTORE DUP4 DUP2 DUP2 MLOAD DUP2 MSTORE PUSH1 0x20 ADD SWAP2 POP DUP1 MLOAD SWAP1 PUSH1 0x20 ADD SWAP1 PUSH1 0x20 MUL DUP1 DUP4 DUP4 PUSH1 0x0 JUMPDEST DUP4 DUP2 LT ISZERO PUSH2 0x4C2 JUMPI DUP1 DUP3 ADD MLOAD DUP2 DUP5 ADD MSTORE PUSH1 0x20 DUP2 ADD SWAP1 POP PUSH2 0x4A7 JUMP JUMPDEST POP POP POP POP SWAP1 POP ADD SWAP4 POP POP POP POP PUSH1 0x0 PUSH1 0x40 MLOAD DUP1 DUP4 SUB DUP2 DUP7 DUP1 EXTCODESIZE ISZERO DUP1 ISZERO PUSH2 0x4E6 JUMPI PUSH1 0x0 DUP1 REVERT JUMPDEST POP GAS STATICCALL ISZERO DUP1 ISZERO PUSH2 0x4FA JUMPI RETURNDATASIZE PUSH1 0x0 DUP1 RETURNDATACOPY RETURNDATASIZE PUSH1 0x0 REVERT JUMPDEST POP POP POP POP PUSH1 0x40 MLOAD RETURNDATASIZE PUSH1 0x0 DUP3 RETURNDATACOPY RETURNDATASIZE PUSH1 0x1F NOT PUSH1 0x1F DUP3 ADD AND DUP3 ADD DUP1 PUSH1 0x40 MSTORE POP PUSH1 0x20 DUP2 LT ISZERO PUSH2 0x524 JUMPI PUSH1 0x0 DUP1 REVERT JUMPDEST DUP2 ADD SWAP1 DUP1 DUP1 MLOAD PUSH1 0x40 MLOAD SWAP4 SWAP3 SWAP2 SWAP1 DUP5 PUSH5 0x100000000 DUP3 GT ISZERO PUSH2 0x544 JUMPI PUSH1 0x0 DUP1 REVERT JUMPDEST DUP4 DUP3 ADD SWAP2 POP PUSH1 0x20 DUP3 ADD DUP6 DUP2 GT ISZERO PUSH2 0x55A JUMPI PUSH1 0x0 DUP1 REVERT JUMPDEST DUP3 MLOAD DUP7 PUSH1 0x20 DUP3 MUL DUP4 ADD GT PUSH5 0x100000000 DUP3 GT OR ISZERO PUSH2 0x577 JUMPI PUSH1 0x0 DUP1 REVERT JUMPDEST DUP1 DUP4 MSTORE PUSH1 0x20 DUP4 ADD SWAP3 POP POP POP SWAP1 DUP1 MLOAD SWAP1 PUSH1 0x20 ADD SWAP1 PUSH1 0x20 MUL DUP1 DUP4 DUP4 PUSH1 0x0 JUMPDEST DUP4 DUP2 LT ISZERO PUSH2 0x5AE JUMPI DUP1 DUP3 ADD MLOAD DUP2 DUP5 ADD MSTORE PUSH1 0x20 DUP2 ADD SWAP1 POP PUSH2 0x593 JUMP JUMPDEST POP POP POP POP SWAP1 POP ADD PUSH1 0x40 MSTORE POP POP POP PUSH1 0x1 DUP2 MLOAD DUP2 LT PUSH2 0x5C7 JUMPI INVALID JUMPDEST PUSH1 0x20 MUL PUSH1 0x20 ADD ADD MLOAD SWAP1 POP PUSH2 0x610 PUSH1 0x40 MLOAD DUP1 PUSH1 0x40 ADD PUSH1 0x40 MSTORE DUP1 PUSH1 0xE DUP2 MSTORE PUSH1 0x20 ADD PUSH32 0x616D6F756E745265717569726564000000000000000000000000000000000000 DUP2 MSTORE POP DUP3 PUSH2 0x9E7 JUMP JUMPDEST DUP7 PUSH20 0xFFFFFFFFFFFFFFFFFFFFFFFFFFFFFFFFFFFFFFFF AND PUSH4 0x23B872DD CALLER ADDRESS DUP9 PUSH1 0x40 MLOAD DUP5 PUSH4 0xFFFFFFFF AND PUSH1 0xE0 SHL DUP2 MSTORE PUSH1 0x4 ADD DUP1 DUP5 PUSH20 0xFFFFFFFFFFFFFFFFFFFFFFFFFFFFFFFFFFFFFFFF AND DUP2 MSTORE PUSH1 0x20 ADD DUP4 PUSH20 0xFFFFFFFFFFFFFFFFFFFFFFFFFFFFFFFFFFFFFFFF AND DUP2 MSTORE PUSH1 0x20 ADD DUP3 DUP2 MSTORE PUSH1 0x20 ADD SWAP4 POP POP POP POP PUSH1 0x20 PUSH1 0x40 MLOAD DUP1 DUP4 SUB DUP2 PUSH1 0x0 DUP8 DUP1 EXTCODESIZE ISZERO DUP1 ISZERO PUSH2 0x69F JUMPI PUSH1 0x0 DUP1 REVERT JUMPDEST POP GAS CALL ISZERO DUP1 ISZERO PUSH2 0x6B3 JUMPI RETURNDATASIZE PUSH1 0x0 DUP1 RETURNDATACOPY RETURNDATASIZE PUSH1 0x0 REVERT JUMPDEST POP POP POP POP PUSH1 0x40 MLOAD RETURNDATASIZE PUSH1 0x20 DUP2 LT ISZERO PUSH2 0x6C9 JUMPI PUSH1 0x0 DUP1 REVERT JUMPDEST DUP2 ADD SWAP1 DUP1 DUP1 MLOAD SWAP1 PUSH1 0x20 ADD SWAP1 SWAP3 SWAP2 SWAP1 POP POP POP POP DUP7 PUSH20 0xFFFFFFFFFFFFFFFFFFFFFFFFFFFFFFFFFFFFFFFF AND PUSH4 0x95EA7B3 PUSH20 0x1B02DA8CB0D097EB8D57A175B88C7D8B47997506 DUP8 PUSH1 0x40 MLOAD DUP4 PUSH4 0xFFFFFFFF AND PUSH1 0xE0 SHL DUP2 MSTORE PUSH1 0x4 ADD DUP1 DUP4 PUSH20 0xFFFFFFFFFFFFFFFFFFFFFFFFFFFFFFFFFFFFFFFF AND DUP2 MSTORE PUSH1 0x20 ADD DUP3 DUP2 MSTORE PUSH1 0x20 ADD SWAP3 POP POP POP PUSH1 0x20 PUSH1 0x40 MLOAD DUP1 DUP4 SUB DUP2 PUSH1 0x0 DUP8 DUP1 EXTCODESIZE ISZERO DUP1 ISZERO PUSH2 0x760 JUMPI PUSH1 0x0 DUP1 REVERT JUMPDEST POP GAS CALL ISZERO DUP1 ISZERO PUSH2 0x774 JUMPI RETURNDATASIZE PUSH1 0x0 DUP1 RETURNDATACOPY RETURNDATASIZE PUSH1 0x0 REVERT JUMPDEST POP POP POP POP PUSH1 0x40 MLOAD RETURNDATASIZE PUSH1 0x20 DUP2 LT ISZERO PUSH2 0x78A JUMPI PUSH1 0x0 DUP1 REVERT JUMPDEST DUP2 ADD SWAP1 DUP1 DUP1 MLOAD SWAP1 PUSH1 0x20 ADD SWAP1 SWAP3 SWAP2 SWAP1 POP POP POP POP PUSH1 0x0 PUSH20 0x1B02DA8CB0D097EB8D57A175B88C7D8B47997506 PUSH20 0xFFFFFFFFFFFFFFFFFFFFFFFFFFFFFFFFFFFFFFFF AND PUSH4 0x38ED1739 DUP8 PUSH1 0x0 DUP7 CALLER PUSH1 0x0 SLOAD PUSH1 0x40 MLOAD DUP7 PUSH4 0xFFFFFFFF AND PUSH1 0xE0 SHL DUP2 MSTORE PUSH1 0x4 ADD DUP1 DUP7 DUP2 MSTORE PUSH1 0x20 ADD DUP6 DUP2 MSTORE PUSH1 0x20 ADD DUP1 PUSH1 0x20 ADD DUP5 PUSH20 0xFFFFFFFFFFFFFFFFFFFFFFFFFFFFFFFFFFFFFFFF AND DUP2 MSTORE PUSH1 0x20 ADD DUP4 DUP2 MSTORE PUSH1 0x20 ADD DUP3 DUP2 SUB DUP3 MSTORE DUP6 DUP2 DUP2 MLOAD DUP2 MSTORE PUSH1 0x20 ADD SWAP2 POP DUP1 MLOAD SWAP1 PUSH1 0x20 ADD SWAP1 PUSH1 0x20 MUL DUP1 DUP4 DUP4 PUSH1 0x0 JUMPDEST DUP4 DUP2 LT ISZERO PUSH2 0x856 JUMPI DUP1 DUP3 ADD MLOAD DUP2 DUP5 ADD MSTORE PUSH1 0x20 DUP2 ADD SWAP1 POP PUSH2 0x83B JUMP JUMPDEST POP POP POP POP SWAP1 POP ADD SWAP7 POP POP POP POP POP POP POP PUSH1 0x0 PUSH1 0x40 MLOAD DUP1 DUP4 SUB DUP2 PUSH1 0x0 DUP8 DUP1 EXTCODESIZE ISZERO DUP1 ISZERO PUSH2 0x87F JUMPI PUSH1 0x0 DUP1 REVERT JUMPDEST POP GAS CALL ISZERO DUP1 ISZERO PUSH2 0x893 JUMPI RETURNDATASIZE PUSH1 0x0 DUP1 RETURNDATACOPY RETURNDATASIZE PUSH1 0x0 REVERT JUMPDEST POP POP POP POP PUSH1 0x40 MLOAD RETURNDATASIZE PUSH1 0x0 DUP3 RETURNDATACOPY RETURNDATASIZE PUSH1 0x1F NOT PUSH1 0x1F DUP3 ADD AND DUP3 ADD DUP1 PUSH1 0x40 MSTORE POP PUSH1 0x20 DUP2 LT ISZERO PUSH2 0x8BD JUMPI PUSH1 0x0 DUP1 REVERT JUMPDEST DUP2 ADD SWAP1 DUP1 DUP1 MLOAD PUSH1 0x40 MLOAD SWAP4 SWAP3 SWAP2 SWAP1 DUP5 PUSH5 0x100000000 DUP3 GT ISZERO PUSH2 0x8DD JUMPI PUSH1 0x0 DUP1 REVERT JUMPDEST DUP4 DUP3 ADD SWAP2 POP PUSH1 0x20 DUP3 ADD DUP6 DUP2 GT ISZERO PUSH2 0x8F3 JUMPI PUSH1 0x0 DUP1 REVERT JUMPDEST DUP3 MLOAD DUP7 PUSH1 0x20 DUP3 MUL DUP4 ADD GT PUSH5 0x100000000 DUP3 GT OR ISZERO PUSH2 0x910 JUMPI PUSH1 0x0 DUP1 REVERT JUMPDEST DUP1 DUP4 MSTORE PUSH1 0x20 DUP4 ADD SWAP3 POP POP POP SWAP1 DUP1 MLOAD SWAP1 PUSH1 0x20 ADD SWAP1 PUSH1 0x20 MUL DUP1 DUP4 DUP4 PUSH1 0x0 JUMPDEST DUP4 DUP2 LT ISZERO PUSH2 0x947 JUMPI DUP1 DUP3 ADD MLOAD DUP2 DUP5 ADD MSTORE PUSH1 0x20 DUP2 ADD SWAP1 POP PUSH2 0x92C JUMP JUMPDEST POP POP POP POP SWAP1 POP ADD PUSH1 0x40 MSTORE POP POP POP PUSH1 0x1 DUP2 MLOAD DUP2 LT PUSH2 0x960 JUMPI INVALID JUMPDEST PUSH1 0x20 MUL PUSH1 0x20 ADD ADD MLOAD SWAP1 POP PUSH2 0x9A9 PUSH1 0x40 MLOAD DUP1 PUSH1 0x40 ADD PUSH1 0x40 MSTORE DUP1 PUSH1 0xE DUP2 MSTORE PUSH1 0x20 ADD PUSH32 0x616D6F756E745265636965766564000000000000000000000000000000000000 DUP2 MSTORE POP DUP3 PUSH2 0x9E7 JUMP JUMPDEST DUP1 SWAP5 POP POP POP POP POP SWAP4 SWAP3 POP POP POP JUMP JUMPDEST PUSH20 0x2791BCA1F2DE4661ED88A30C99A7A9449AA84174 DUP2 JUMP JUMPDEST PUSH20 0xC35DADB65012EC5796536BD9864ED8773ABC74C4 DUP2 JUMP JUMPDEST PUSH2 0xAEA DUP3 DUP3 PUSH1 0x40 MLOAD PUSH1 0x24 ADD DUP1 DUP1 PUSH1 0x20 ADD DUP4 DUP2 MSTORE PUSH1 0x20 ADD DUP3 DUP2 SUB DUP3 MSTORE DUP5 DUP2 DUP2 MLOAD DUP2 MSTORE PUSH1 0x20 ADD SWAP2 POP DUP1 MLOAD SWAP1 PUSH1 0x20 ADD SWAP1 DUP1 DUP4 DUP4 PUSH1 0x0 JUMPDEST DUP4 DUP2 LT ISZERO PUSH2 0xA35 JUMPI DUP1 DUP3 ADD MLOAD DUP2 DUP5 ADD MSTORE PUSH1 0x20 DUP2 ADD SWAP1 POP PUSH2 0xA1A JUMP JUMPDEST POP POP POP POP SWAP1 POP SWAP1 DUP2 ADD SWAP1 PUSH1 0x1F AND DUP1 ISZERO PUSH2 0xA62 JUMPI DUP1 DUP3 SUB DUP1 MLOAD PUSH1 0x1 DUP4 PUSH1 0x20 SUB PUSH2 0x100 EXP SUB NOT AND DUP2 MSTORE PUSH1 0x20 ADD SWAP2 POP JUMPDEST POP SWAP4 POP POP POP POP PUSH1 0x40 MLOAD PUSH1 0x20 DUP2 DUP4 SUB SUB DUP2 MSTORE SWAP1 PUSH1 0x40 MSTORE PUSH32 0xB60E72CC00000000000000000000000000000000000000000000000000000000 PUSH28 0xFFFFFFFFFFFFFFFFFFFFFFFFFFFFFFFFFFFFFFFFFFFFFFFFFFFFFFFF NOT AND PUSH1 0x20 DUP3 ADD DUP1 MLOAD PUSH28 0xFFFFFFFFFFFFFFFFFFFFFFFFFFFFFFFFFFFFFFFFFFFFFFFFFFFFFFFF DUP4 DUP2 DUP4 AND OR DUP4 MSTORE POP POP POP POP PUSH2 0xAEE JUMP JUMPDEST POP POP JUMP JUMPDEST PUSH1 0x0 DUP2 MLOAD SWAP1 POP PUSH1 0x0 PUSH11 0x636F6E736F6C652E6C6F67 SWAP1 POP PUSH1 0x20 DUP4 ADD PUSH1 0x0 DUP1 DUP5 DUP4 DUP6 GAS STATICCALL POP POP POP POP POP JUMP INVALID LOG2 PUSH5 0x6970667358 0x22 SLT KECCAK256 0x26 PUSH11 0x3862DFAA8642C3E7F3D884 EXP LOG4 RETURNDATACOPY STATICCALL DELEGATECALL PUSH8 0xE7A7F09CCFEC8EAA ORIGIN 0xDC DUP8 0xCB 0xAB PUSH5 0x736F6C6343 STOP SMOD MOD STOP CALLER "},"methodIdentifiers":{"SUSHI_FACTORY()":"b753bb47","SUSHI_ROUTER()":"0c24f4fa","USDC()":"89a30271","WMATIC()":"4d95cad9","placeTrade(address,address,uint256)":"7cb54a7f"}}}}}