{
  "_format": "hh-sol-artifact-1",
  "contractName": "SushiSwapV2Swap",
  "sourceName": "contracts/sushiswap.sol",
  "abi": [
    {
      "inputs": [],
      "name": "SUSHI_FACTORY",
      "outputs": [
        {
          "internalType": "address",
          "name": "",
          "type": "address"
        }
      ],
      "stateMutability": "view",
      "type": "function"
    },
    {
      "inputs": [],
      "name": "SUSHI_ROUTER",
      "outputs": [
        {
          "internalType": "address",
          "name": "",
          "type": "address"
        }
      ],
      "stateMutability": "view",
      "type": "function"
    },
    {
      "inputs": [],
      "name": "USDC",
      "outputs": [
        {
          "internalType": "address",
          "name": "",
          "type": "address"
        }
      ],
      "stateMutability": "view",
      "type": "function"
    },
    {
      "inputs": [],
      "name": "WMATIC",
      "outputs": [
        {
          "internalType": "address",
          "name": "",
          "type": "address"
        }
      ],
      "stateMutability": "view",
      "type": "function"
    },
    {
      "inputs": [
        {
          "internalType": "address",
          "name": "_fromToken",
          "type": "address"
        },
        {
          "internalType": "address",
          "name": "_toToken",
          "type": "address"
        },
        {
          "internalType": "uint256",
          "name": "_amountIn",
          "type": "uint256"
        }
      ],
      "name": "placeTrade",
      "outputs": [
        {
          "internalType": "uint256",
          "name": "",
          "type": "uint256"
        }
      ],
      "stateMutability": "nonpayable",
      "type": "function"
    }
  ],
  "bytecode": "0x608060405262015180420160005534801561001957600080fd5b50610b4d806100296000396000f3fe608060405234801561001057600080fd5b50600436106100575760003560e01c80630c24f4fa1461005c5780634d95cad9146100905780637cb54a7f146100c457806389a3027114610146578063b753bb471461017a575b600080fd5b6100646101ae565b604051808273ffffffffffffffffffffffffffffffffffffffff16815260200191505060405180910390f35b6100986101c6565b604051808273ffffffffffffffffffffffffffffffffffffffff16815260200191505060405180910390f35b610130600480360360608110156100da57600080fd5b81019080803573ffffffffffffffffffffffffffffffffffffffff169060200190929190803573ffffffffffffffffffffffffffffffffffffffff169060200190929190803590602001909291905050506101de565b6040518082815260200191505060405180910390f35b61014e6109b7565b604051808273ffffffffffffffffffffffffffffffffffffffff16815260200191505060405180910390f35b6101826109cf565b604051808273ffffffffffffffffffffffffffffffffffffffff16815260200191505060405180910390f35b731b02da8cb0d097eb8d57a175b88c7d8b4799750681565b730d500b1d8e8ef31e21c99d1db9a6444d3adf127081565b60008073c35dadb65012ec5796536bd9864ed8773abc74c473ffffffffffffffffffffffffffffffffffffffff1663e6a4390586866040518363ffffffff1660e01b8152600401808373ffffffffffffffffffffffffffffffffffffffff1681526020018273ffffffffffffffffffffffffffffffffffffffff1681526020019250505060206040518083038186803b15801561027a57600080fd5b505afa15801561028e573d6000803e3d6000fd5b505050506040513d60208110156102a457600080fd5b81019080805190602001909291905050509050600073ffffffffffffffffffffffffffffffffffffffff168173ffffffffffffffffffffffffffffffffffffffff16141561035a576040517f08c379a00000000000000000000000000000000000000000000000000000000081526004018080602001828103825260138152602001807f506f6f6c20646f6573206e6f742065786973740000000000000000000000000081525060200191505060405180910390fd5b6000600267ffffffffffffffff8111801561037457600080fd5b506040519080825280602002602001820160405280156103a35781602001602082028036833780820191505090505b50905085816000815181106103b457fe5b602002602001019073ffffffffffffffffffffffffffffffffffffffff16908173ffffffffffffffffffffffffffffffffffffffff168152505084816001815181106103fc57fe5b602002602001019073ffffffffffffffffffffffffffffffffffffffff16908173ffffffffffffffffffffffffffffffffffffffff16815250506000731b02da8cb0d097eb8d57a175b88c7d8b4799750673ffffffffffffffffffffffffffffffffffffffff1663d06ca61f86846040518363ffffffff1660e01b81526004018083815260200180602001828103825283818151815260200191508051906020019060200280838360005b838110156104c25780820151818401526020810190506104a7565b50505050905001935050505060006040518083038186803b1580156104e657600080fd5b505afa1580156104fa573d6000803e3d6000fd5b505050506040513d6000823e3d601f19601f82011682018060405250602081101561052457600080fd5b810190808051604051939291908464010000000082111561054457600080fd5b8382019150602082018581111561055a57600080fd5b825186602082028301116401000000008211171561057757600080fd5b8083526020830192505050908051906020019060200280838360005b838110156105ae578082015181840152602081019050610593565b505050509050016040525050506001815181106105c757fe5b602002602001015190506106106040518060400160405280600e81526020017f616d6f756e745265717569726564000000000000000000000000000000000000815250826109e7565b8673ffffffffffffffffffffffffffffffffffffffff166323b872dd3330886040518463ffffffff1660e01b8152600401808473ffffffffffffffffffffffffffffffffffffffff1681526020018373ffffffffffffffffffffffffffffffffffffffff1681526020018281526020019350505050602060405180830381600087803b15801561069f57600080fd5b505af11580156106b3573d6000803e3d6000fd5b505050506040513d60208110156106c957600080fd5b8101908080519060200190929190505050508673ffffffffffffffffffffffffffffffffffffffff1663095ea7b3731b02da8cb0d097eb8d57a175b88c7d8b47997506876040518363ffffffff1660e01b8152600401808373ffffffffffffffffffffffffffffffffffffffff16815260200182815260200192505050602060405180830381600087803b15801561076057600080fd5b505af1158015610774573d6000803e3d6000fd5b505050506040513d602081101561078a57600080fd5b8101908080519060200190929190505050506000731b02da8cb0d097eb8d57a175b88c7d8b4799750673ffffffffffffffffffffffffffffffffffffffff166338ed173987600086336000546040518663ffffffff1660e01b815260040180868152602001858152602001806020018473ffffffffffffffffffffffffffffffffffffffff168152602001838152602001828103825285818151815260200191508051906020019060200280838360005b8381101561085657808201518184015260208101905061083b565b505050509050019650505050505050600060405180830381600087803b15801561087f57600080fd5b505af1158015610893573d6000803e3d6000fd5b505050506040513d6000823e3d601f19601f8201168201806040525060208110156108bd57600080fd5b81019080805160405193929190846401000000008211156108dd57600080fd5b838201915060208201858111156108f357600080fd5b825186602082028301116401000000008211171561091057600080fd5b8083526020830192505050908051906020019060200280838360005b8381101561094757808201518184015260208101905061092c565b5050505090500160405250505060018151811061096057fe5b602002602001015190506109a96040518060400160405280600e81526020017f616d6f756e745265636965766564000000000000000000000000000000000000815250826109e7565b809450505050509392505050565b732791bca1f2de4661ed88a30c99a7a9449aa8417481565b73c35dadb65012ec5796536bd9864ed8773abc74c481565b610aea82826040516024018080602001838152602001828103825284818151815260200191508051906020019080838360005b83811015610a35578082015181840152602081019050610a1a565b50505050905090810190601f168015610a625780820380516001836020036101000a031916815260200191505b5093505050506040516020818303038152906040527fb60e72cc000000000000000000000000000000000000000000000000000000007bffffffffffffffffffffffffffffffffffffffffffffffffffffffff19166020820180517bffffffffffffffffffffffffffffffffffffffffffffffffffffffff8381831617835250505050610aee565b5050565b60008151905060006a636f6e736f6c652e6c6f679050602083016000808483855afa505050505056fea2646970667358221220266a3862dfaa8642c3e7f3d8840aa43efaf467e7a7f09ccfec8eaa32dc87cbab64736f6c63430007060033",
  "linkReferences": {},
  "deployedLinkReferences": {}
}