{
  "_format": "hh-sol-artifact-1",
  "contractName": "PairFlash",
  "sourceName": "contracts/finalFlash.sol",
  "abi": [
    {
      "inputs": [
        {
          "internalType": "contract UniswapV3Swap",
          "name": "_swapAddress",
          "type": "address"
        },
        {
          "internalType": "contract SushiSwapV2Swap",
          "name": "_sushiswapAddress",
          "type": "address"
        },
        {
          "internalType": "address",
          "name": "_factory",
          "type": "address"
        },
        {
          "internalType": "address",
          "name": "_WETH9",
          "type": "address"
        }
      ],
      "stateMutability": "nonpayable",
      "type": "constructor"
    },
    {
      "inputs": [],
      "name": "USDC",
      "outputs": [
        {
          "internalType": "address",
          "name": "",
          "type": "address"
        }
      ],
      "stateMutability": "view",
      "type": "function"
    },
    {
      "inputs": [],
      "name": "WETH",
      "outputs": [
        {
          "internalType": "address",
          "name": "",
          "type": "address"
        }
      ],
      "stateMutability": "view",
      "type": "function"
    },
    {
      "inputs": [],
      "name": "WETH9",
      "outputs": [
        {
          "internalType": "address",
          "name": "",
          "type": "address"
        }
      ],
      "stateMutability": "view",
      "type": "function"
    },
    {
      "inputs": [],
      "name": "WMATIC",
      "outputs": [
        {
          "internalType": "address",
          "name": "",
          "type": "address"
        }
      ],
      "stateMutability": "view",
      "type": "function"
    },
    {
      "inputs": [],
      "name": "factory",
      "outputs": [
        {
          "internalType": "address",
          "name": "",
          "type": "address"
        }
      ],
      "stateMutability": "view",
      "type": "function"
    },
    {
      "inputs": [
        {
          "components": [
            {
              "internalType": "address",
              "name": "token0",
              "type": "address"
            },
            {
              "internalType": "address",
              "name": "token1",
              "type": "address"
            },
            {
              "internalType": "uint24",
              "name": "fee1",
              "type": "uint24"
            },
            {
              "internalType": "uint256",
              "name": "amount0",
              "type": "uint256"
            },
            {
              "internalType": "uint256",
              "name": "amount1",
              "type": "uint256"
            }
          ],
          "internalType": "struct FlashParams",
          "name": "params",
          "type": "tuple"
        }
      ],
      "name": "initFlash",
      "outputs": [],
      "stateMutability": "nonpayable",
      "type": "function"
    },
    {
      "inputs": [],
      "name": "refundETH",
      "outputs": [],
      "stateMutability": "payable",
      "type": "function"
    },
    {
      "inputs": [],
      "name": "sushiswaper",
      "outputs": [
        {
          "internalType": "contract SushiSwapV2Swap",
          "name": "",
          "type": "address"
        }
      ],
      "stateMutability": "view",
      "type": "function"
    },
    {
      "inputs": [
        {
          "internalType": "address",
          "name": "token",
          "type": "address"
        },
        {
          "internalType": "uint256",
          "name": "amountMinimum",
          "type": "uint256"
        },
        {
          "internalType": "address",
          "name": "recipient",
          "type": "address"
        }
      ],
      "name": "sweepToken",
      "outputs": [],
      "stateMutability": "payable",
      "type": "function"
    },
    {
      "inputs": [
        {
          "internalType": "uint256",
          "name": "fee0",
          "type": "uint256"
        },
        {
          "internalType": "uint256",
          "name": "fee1",
          "type": "uint256"
        },
        {
          "internalType": "bytes",
          "name": "data",
          "type": "bytes"
        }
      ],
      "name": "uniswapV3FlashCallback",
      "outputs": [],
      "stateMutability": "nonpayable",
      "type": "function"
    },
    {
      "inputs": [],
      "name": "univ3swaper",
      "outputs": [
        {
          "internalType": "contract UniswapV3Swap",
          "name": "",
          "type": "address"
        }
      ],
      "stateMutability": "view",
      "type": "function"
    },
    {
      "inputs": [
        {
          "internalType": "uint256",
          "name": "amountMinimum",
          "type": "uint256"
        },
        {
          "internalType": "address",
          "name": "recipient",
          "type": "address"
        }
      ],
      "name": "unwrapWETH9",
      "outputs": [],
      "stateMutability": "payable",
      "type": "function"
    },
    {
      "stateMutability": "payable",
      "type": "receive"
    }
  ],
  "bytecode": "0x610100604052732791bca1f2de4661ed88a30c99a7a9449aa841746000806101000a81548173ffffffffffffffffffffffffffffffffffffffff021916908373ffffffffffffffffffffffffffffffffffffffff160217905550730d500b1d8e8ef31e21c99d1db9a6444d3adf1270600160006101000a81548173ffffffffffffffffffffffffffffffffffffffff021916908373ffffffffffffffffffffffffffffffffffffffff160217905550737ceb23fd6bc0add59e62ac25578270cff1b9f619600260006101000a81548173ffffffffffffffffffffffffffffffffffffffff021916908373ffffffffffffffffffffffffffffffffffffffff1602179055503480156200011057600080fd5b5060405162002f6338038062002f63833981810160405281019062000136919062000265565b81818173ffffffffffffffffffffffffffffffffffffffff1660808173ffffffffffffffffffffffffffffffffffffffff1660601b815250508073ffffffffffffffffffffffffffffffffffffffff1660a08173ffffffffffffffffffffffffffffffffffffffff1660601b8152505050508373ffffffffffffffffffffffffffffffffffffffff1660c08173ffffffffffffffffffffffffffffffffffffffff1660601b815250508273ffffffffffffffffffffffffffffffffffffffff1660e08173ffffffffffffffffffffffffffffffffffffffff1660601b81525050505050506200037b565b60008151905062000231816200032d565b92915050565b600081519050620002488162000347565b92915050565b6000815190506200025f8162000361565b92915050565b600080600080608085870312156200027c57600080fd5b60006200028c878288016200024e565b94505060206200029f8782880162000237565b9350506040620002b28782880162000220565b9250506060620002c58782880162000220565b91505092959194509250565b6000620002de826200030d565b9050919050565b6000620002f282620002d1565b9050919050565b60006200030682620002d1565b9050919050565b600073ffffffffffffffffffffffffffffffffffffffff82169050919050565b6200033881620002d1565b81146200034457600080fd5b50565b6200035281620002e5565b81146200035e57600080fd5b50565b6200036c81620002f9565b81146200037857600080fd5b50565b60805160601c60a05160601c60c05160601c60e05160601c612b6b620003f86000398061035152806119615280611988525080610f06528061187c52806118a352508060b2528061037752806104ba52806105555280611a5a5280611aba5280611b3b5250806106005280610b515280610cc25250612b6b6000f3fe6080604052600436106100ab5760003560e01c806389a302711161006457806389a3027114610248578063ad5c464814610273578063c45a01551461029e578063df2ab5bb146102c9578063e9cbafb0146102e5578063f0c653961461030e57610173565b806312210e8a14610178578063278b98ef1461018257806349404b7c146101ad5780634aa4a4fc146101c95780634d95cad9146101f45780635a4309d11461021f57610173565b36610173577f000000000000000000000000000000000000000000000000000000000000000073ffffffffffffffffffffffffffffffffffffffff163373ffffffffffffffffffffffffffffffffffffffff1614610171576040517f08c379a00000000000000000000000000000000000000000000000000000000081526004018080602001828103825260098152602001807f4e6f74205745544839000000000000000000000000000000000000000000000081525060200191505060405180910390fd5b005b600080fd5b610180610339565b005b34801561018e57600080fd5b5061019761034f565b6040516101a49190612791565b60405180910390f35b6101c760048036038101906101c291906124bf565b610373565b005b3480156101d557600080fd5b506101de610553565b6040516101eb91906126af565b60405180910390f35b34801561020057600080fd5b50610209610577565b60405161021691906126af565b60405180910390f35b34801561022b57600080fd5b506102466004803603810190610241919061246d565b61059d565b005b34801561025457600080fd5b5061025d610b05565b60405161026a91906126af565b60405180910390f35b34801561027f57600080fd5b50610288610b29565b60405161029591906126af565b60405180910390f35b3480156102aa57600080fd5b506102b3610b4f565b6040516102c091906126af565b60405180910390f35b6102e360048036038101906102de91906123cc565b610b73565b005b3480156102f157600080fd5b5061030c600480360381019061030791906124fb565b610caa565b005b34801561031a57600080fd5b50610323610f04565b60405161033091906127ac565b60405180910390f35b600047111561034d5761034c3347610f28565b5b565b7f000000000000000000000000000000000000000000000000000000000000000081565b60007f000000000000000000000000000000000000000000000000000000000000000073ffffffffffffffffffffffffffffffffffffffff166370a08231306040518263ffffffff1660e01b8152600401808273ffffffffffffffffffffffffffffffffffffffff16815260200191505060206040518083038186803b1580156103fc57600080fd5b505afa158015610410573d6000803e3d6000fd5b505050506040513d602081101561042657600080fd5b81019080805190602001909291905050509050828110156104af576040517f08c379a00000000000000000000000000000000000000000000000000000000081526004018080602001828103825260128152602001807f496e73756666696369656e74205745544839000000000000000000000000000081525060200191505060405180910390fd5b600081111561054e577f000000000000000000000000000000000000000000000000000000000000000073ffffffffffffffffffffffffffffffffffffffff16632e1a7d4d826040518263ffffffff1660e01b815260040180828152602001915050600060405180830381600087803b15801561052b57600080fd5b505af115801561053f573d6000803e3d6000fd5b5050505061054d8282610f28565b5b505050565b7f000000000000000000000000000000000000000000000000000000000000000081565b600160009054906101000a900473ffffffffffffffffffffffffffffffffffffffff1681565b60006040518060600160405280836000015173ffffffffffffffffffffffffffffffffffffffff168152602001836020015173ffffffffffffffffffffffffffffffffffffffff168152602001836040015162ffffff16815250905060006106257f0000000000000000000000000000000000000000000000000000000000000000836110a4565b90506106656040518060400160405280601581526020017f2d2d2d20696e69742062616c616e636573202d2d2d00000000000000000000008152506111ff565b61066d6112fd565b8073ffffffffffffffffffffffffffffffffffffffff1663490e6cbc3085606001518660800151604051806080016040528089606001518152602001896080015181526020013373ffffffffffffffffffffffffffffffffffffffff168152602001888152506040516020016106e391906127c7565b6040516020818303038152906040526040518563ffffffff1660e01b8152600401610711949392919061270e565b600060405180830381600087803b15801561072b57600080fd5b505af115801561073f573d6000803e3d6000fd5b505050506107646040518060a0016040528060618152602001612a72606191396111ff565b61076c6112fd565b6107ab6040518060400160405280601981526020017f464c4153485f4c4f414e5f455845435554494f4e5f54494d450000000000000081525042611520565b6107cc6040518060a0016040528060638152602001612ad3606391396111ff565b600160009054906101000a900473ffffffffffffffffffffffffffffffffffffffff1673ffffffffffffffffffffffffffffffffffffffff1663a9059cbb33600160009054906101000a900473ffffffffffffffffffffffffffffffffffffffff1673ffffffffffffffffffffffffffffffffffffffff166370a08231306040518263ffffffff1660e01b815260040161086691906126ca565b60206040518083038186803b15801561087e57600080fd5b505afa158015610892573d6000803e3d6000fd5b505050506040513d601f19601f820116820180604052508101906108b69190612496565b6040518363ffffffff1660e01b81526004016108d39291906126e5565b602060405180830381600087803b1580156108ed57600080fd5b505af1158015610901573d6000803e3d6000fd5b505050506040513d601f19601f82011682018060405250810190610925919061241b565b5060008054906101000a900473ffffffffffffffffffffffffffffffffffffffff1673ffffffffffffffffffffffffffffffffffffffff1663a9059cbb3360008054906101000a900473ffffffffffffffffffffffffffffffffffffffff1673ffffffffffffffffffffffffffffffffffffffff166370a08231306040518263ffffffff1660e01b81526004016109bc91906126ca565b60206040518083038186803b1580156109d457600080fd5b505afa1580156109e8573d6000803e3d6000fd5b505050506040513d601f19601f82011682018060405250810190610a0c9190612496565b6040518363ffffffff1660e01b8152600401610a299291906126e5565b602060405180830381600087803b158015610a4357600080fd5b505af1158015610a57573d6000803e3d6000fd5b505050506040513d601f19601f82011682018060405250810190610a7b919061241b565b50610aba6040518060400160405280601681526020017f2d2d2d20656d70747920636f6e7472616374202d2d2d000000000000000000008152506111ff565b610ac26112fd565b610b006040518060400160405280600e81526020017f666c6173682073756363657373210000000000000000000000000000000000008152506111ff565b505050565b60008054906101000a900473ffffffffffffffffffffffffffffffffffffffff1681565b600260009054906101000a900473ffffffffffffffffffffffffffffffffffffffff1681565b7f000000000000000000000000000000000000000000000000000000000000000081565b60008373ffffffffffffffffffffffffffffffffffffffff166370a08231306040518263ffffffff1660e01b8152600401808273ffffffffffffffffffffffffffffffffffffffff16815260200191505060206040518083038186803b158015610bdc57600080fd5b505afa158015610bf0573d6000803e3d6000fd5b505050506040513d6020811015610c0657600080fd5b8101908080519060200190929190505050905082811015610c8f576040517f08c379a00000000000000000000000000000000000000000000000000000000081526004018080602001828103825260128152602001807f496e73756666696369656e7420746f6b656e000000000000000000000000000081525060200191505060405180910390fd5b6000811115610ca457610ca3848383611627565b5b50505050565b60008282810190610cbb9190612444565b9050610ceb7f00000000000000000000000000000000000000000000000000000000000000008260600151611828565b506000816060015160000151905060008260600151602001519050610d446040518060400160405280601881526020017f2d2d2d20666c6173682073776170207374617274202d2d2d00000000000000008152506111ff565b610d4c6112fd565b600083600001519050610d766040518060600160405280603b81526020016129a7603b91396111ff565b610db56040518060400160405280601381526020017f416d6f756e74206f6620257320574d415449430000000000000000000000000081525082611520565b6000610e04600160009054906101000a900473ffffffffffffffffffffffffffffffffffffffff1660008054906101000a900473ffffffffffffffffffffffffffffffffffffffff1684611874565b9050610e27604051806080016040528060488152602001612a2a604891396111ff565b610e2f6112fd565b610e7c60008054906101000a900473ffffffffffffffffffffffffffffffffffffffff16600160009054906101000a900473ffffffffffffffffffffffffffffffffffffffff1683611959565b9050610e9f6040518060800160405280604881526020016129e2604891396111ff565b610ea76112fd565b6000610eb786600001518b611a3e565b90506000610ec987602001518b611a3e565b90506000821115610ee157610ee086303385611a58565b5b6000811115610ef757610ef685303384611a58565b5b5050505050505050505050565b7f000000000000000000000000000000000000000000000000000000000000000081565b60008273ffffffffffffffffffffffffffffffffffffffff1682600067ffffffffffffffff81118015610f5a57600080fd5b506040519080825280601f01601f191660200182016040528015610f8d5781602001600182028036833780820191505090505b506040518082805190602001908083835b60208310610fc15780518252602082019150602081019050602083039250610f9e565b6001836020036101000a03801982511681845116808217855250505050505090500191505060006040518083038185875af1925050503d8060008114611023576040519150601f19603f3d011682016040523d82523d6000602084013e611028565b606091505b505090508061109f576040517f08c379a00000000000000000000000000000000000000000000000000000000081526004018080602001828103825260038152602001807f535445000000000000000000000000000000000000000000000000000000000081525060200191505060405180910390fd5b505050565b6000816020015173ffffffffffffffffffffffffffffffffffffffff16826000015173ffffffffffffffffffffffffffffffffffffffff16106110e657600080fd5b82826000015183602001518460400151604051602001808473ffffffffffffffffffffffffffffffffffffffff1681526020018373ffffffffffffffffffffffffffffffffffffffff1681526020018262ffffff1681526020019350505050604051602081830303815290604052805190602001207fe34f199b19b2b4f47f68442619d555527d244f78a3297ea89325f843f87b8b5460001b60405160200180807fff000000000000000000000000000000000000000000000000000000000000008152506001018473ffffffffffffffffffffffffffffffffffffffff1660601b815260140183815260200182815260200193505050506040516020818303038152906040528051906020012060001c905092915050565b6112fa816040516024018080602001828103825283818151815260200191508051906020019080838360005b8381101561124657808201518184015260208101905061122b565b50505050905090810190601f1680156112735780820380516001836020036101000a031916815260200191505b50925050506040516020818303038152906040527f41304fac000000000000000000000000000000000000000000000000000000007bffffffffffffffffffffffffffffffffffffffffffffffffffffffff19166020820180517bffffffffffffffffffffffffffffffffffffffffffffffffffffffff8381831617835250505050611c63565b50565b6000600160009054906101000a900473ffffffffffffffffffffffffffffffffffffffff1673ffffffffffffffffffffffffffffffffffffffff166370a08231306040518263ffffffff1660e01b815260040161135a91906126ca565b60206040518083038186803b15801561137257600080fd5b505afa158015611386573d6000803e3d6000fd5b505050506040513d601f19601f820116820180604052508101906113aa9190612496565b905060008060009054906101000a900473ffffffffffffffffffffffffffffffffffffffff1673ffffffffffffffffffffffffffffffffffffffff166370a08231306040518263ffffffff1660e01b815260040161140891906126ca565b60206040518083038186803b15801561142057600080fd5b505afa158015611434573d6000803e3d6000fd5b505050506040513d601f19601f820116820180604052508101906114589190612496565b90506114c06040518060400160405280600d81526020017f574d415449433a2025732e257300000000000000000000000000000000000000815250670de0b6b3a764000084816114a457fe5b04670de0b6b3a76400008086816114b757fe5b04028503611c8c565b61151c6040518060400160405280600b81526020017f555344433a2025732e2573000000000000000000000000000000000000000000815250620f4240838161150557fe5b04620f424080858161151357fe5b04028403611c8c565b5050565b61162382826040516024018080602001838152602001828103825284818151815260200191508051906020019080838360005b8381101561156e578082015181840152602081019050611553565b50505050905090810190601f16801561159b5780820380516001836020036101000a031916815260200191505b5093505050506040516020818303038152906040527fb60e72cc000000000000000000000000000000000000000000000000000000007bffffffffffffffffffffffffffffffffffffffffffffffffffffffff19166020820180517bffffffffffffffffffffffffffffffffffffffffffffffffffffffff8381831617835250505050611c63565b5050565b6000808473ffffffffffffffffffffffffffffffffffffffff1663a9059cbb60e01b8585604051602401808373ffffffffffffffffffffffffffffffffffffffff16815260200182815260200192505050604051602081830303815290604052907bffffffffffffffffffffffffffffffffffffffffffffffffffffffff19166020820180517bffffffffffffffffffffffffffffffffffffffffffffffffffffffff83818316178352505050506040518082805190602001908083835b6020831061170857805182526020820191506020810190506020830392506116e5565b6001836020036101000a0380198251168184511680821785525050505050509050019150506000604051808303816000865af19150503d806000811461176a576040519150601f19603f3d011682016040523d82523d6000602084013e61176f565b606091505b50915091508180156117af57506000815114806117ae575080806020019051602081101561179c57600080fd5b81019080805190602001909291905050505b5b611821576040517f08c379a00000000000000000000000000000000000000000000000000000000081526004018080602001828103825260028152602001807f535400000000000000000000000000000000000000000000000000000000000081525060200191505060405180910390fd5b5050505050565b600061183483836110a4565b90508073ffffffffffffffffffffffffffffffffffffffff163373ffffffffffffffffffffffffffffffffffffffff161461186e57600080fd5b92915050565b60006118a1847f000000000000000000000000000000000000000000000000000000000000000084611d9c565b7f000000000000000000000000000000000000000000000000000000000000000073ffffffffffffffffffffffffffffffffffffffff1663f17e8dc88585856040518463ffffffff1660e01b81526004016118fe9392919061275a565b602060405180830381600087803b15801561191857600080fd5b505af115801561192c573d6000803e3d6000fd5b505050506040513d601f19601f820116820180604052508101906119509190612496565b90509392505050565b6000611986847f000000000000000000000000000000000000000000000000000000000000000084611d9c565b7f000000000000000000000000000000000000000000000000000000000000000073ffffffffffffffffffffffffffffffffffffffff16637cb54a7f8585856040518463ffffffff1660e01b81526004016119e39392919061275a565b602060405180830381600087803b1580156119fd57600080fd5b505af1158015611a11573d6000803e3d6000fd5b505050506040513d601f19601f82011682018060405250810190611a359190612496565b90509392505050565b6000828284019150811015611a5257600080fd5b92915050565b7f000000000000000000000000000000000000000000000000000000000000000073ffffffffffffffffffffffffffffffffffffffff168473ffffffffffffffffffffffffffffffffffffffff16148015611ab35750804710155b15611c0b577f000000000000000000000000000000000000000000000000000000000000000073ffffffffffffffffffffffffffffffffffffffff1663d0e30db0826040518263ffffffff1660e01b81526004016000604051808303818588803b158015611b2057600080fd5b505af1158015611b34573d6000803e3d6000fd5b50505050507f000000000000000000000000000000000000000000000000000000000000000073ffffffffffffffffffffffffffffffffffffffff1663a9059cbb83836040518363ffffffff1660e01b8152600401808373ffffffffffffffffffffffffffffffffffffffff16815260200182815260200192505050602060405180830381600087803b158015611bca57600080fd5b505af1158015611bde573d6000803e3d6000fd5b505050506040513d6020811015611bf457600080fd5b810190808051906020019092919050505050611c5d565b3073ffffffffffffffffffffffffffffffffffffffff168373ffffffffffffffffffffffffffffffffffffffff161415611c4f57611c4a848383611627565b611c5c565b611c5b84848484611f9d565b5b5b50505050565b60008151905060006a636f6e736f6c652e6c6f679050602083016000808483855afa5050505050565b611d978383836040516024018080602001848152602001838152602001828103825285818151815260200191508051906020019080838360005b83811015611ce1578082015181840152602081019050611cc6565b50505050905090810190601f168015611d0e5780820380516001836020036101000a031916815260200191505b509450505050506040516020818303038152906040527fca47c4eb000000000000000000000000000000000000000000000000000000007bffffffffffffffffffffffffffffffffffffffffffffffffffffffff19166020820180517bffffffffffffffffffffffffffffffffffffffffffffffffffffffff8381831617835250505050611c63565b505050565b6000808473ffffffffffffffffffffffffffffffffffffffff1663095ea7b360e01b8585604051602401808373ffffffffffffffffffffffffffffffffffffffff16815260200182815260200192505050604051602081830303815290604052907bffffffffffffffffffffffffffffffffffffffffffffffffffffffff19166020820180517bffffffffffffffffffffffffffffffffffffffffffffffffffffffff83818316178352505050506040518082805190602001908083835b60208310611e7d5780518252602082019150602081019050602083039250611e5a565b6001836020036101000a0380198251168184511680821785525050505050509050019150506000604051808303816000865af19150503d8060008114611edf576040519150601f19603f3d011682016040523d82523d6000602084013e611ee4565b606091505b5091509150818015611f245750600081511480611f235750808060200190516020811015611f1157600080fd5b81019080805190602001909291905050505b5b611f96576040517f08c379a00000000000000000000000000000000000000000000000000000000081526004018080602001828103825260028152602001807f534100000000000000000000000000000000000000000000000000000000000081525060200191505060405180910390fd5b5050505050565b6000808573ffffffffffffffffffffffffffffffffffffffff166323b872dd60e01b868686604051602401808473ffffffffffffffffffffffffffffffffffffffff1681526020018373ffffffffffffffffffffffffffffffffffffffff1681526020018281526020019350505050604051602081830303815290604052907bffffffffffffffffffffffffffffffffffffffffffffffffffffffff19166020820180517bffffffffffffffffffffffffffffffffffffffffffffffffffffffff83818316178352505050506040518082805190602001908083835b6020831061209c5780518252602082019150602081019050602083039250612079565b6001836020036101000a0380198251168184511680821785525050505050509050019150506000604051808303816000865af19150503d80600081146120fe576040519150601f19603f3d011682016040523d82523d6000602084013e612103565b606091505b50915091508180156121435750600081511480612142575080806020019051602081101561213057600080fd5b81019080805190602001909291905050505b5b6121b5576040517f08c379a00000000000000000000000000000000000000000000000000000000081526004018080602001828103825260038152602001807f535446000000000000000000000000000000000000000000000000000000000081525060200191505060405180910390fd5b505050505050565b6000813590506121cc8161294a565b92915050565b6000815190506121e181612961565b92915050565b60008083601f8401126121f957600080fd5b8235905067ffffffffffffffff81111561221257600080fd5b60208301915083600182028301111561222a57600080fd5b9250929050565b600060c0828403121561224357600080fd5b61224d60806127e2565b9050600061225d848285016123a2565b6000830152506020612271848285016123a2565b6020830152506040612285848285016121bd565b60408301525060606122998482850161232d565b60608301525092915050565b600060a082840312156122b757600080fd5b6122c160a06127e2565b905060006122d1848285016121bd565b60008301525060206122e5848285016121bd565b60208301525060406122f98482850161238d565b604083015250606061230d848285016123a2565b6060830152506080612321848285016123a2565b60808301525092915050565b60006060828403121561233f57600080fd5b61234960606127e2565b90506000612359848285016121bd565b600083015250602061236d848285016121bd565b60208301525060406123818482850161238d565b60408301525092915050565b60008135905061239c81612978565b92915050565b6000813590506123b18161298f565b92915050565b6000815190506123c68161298f565b92915050565b6000806000606084860312156123e157600080fd5b60006123ef868287016121bd565b9350506020612400868287016123a2565b9250506040612411868287016121bd565b9150509250925092565b60006020828403121561242d57600080fd5b600061243b848285016121d2565b91505092915050565b600060c0828403121561245657600080fd5b600061246484828501612231565b91505092915050565b600060a0828403121561247f57600080fd5b600061248d848285016122a5565b91505092915050565b6000602082840312156124a857600080fd5b60006124b6848285016123b7565b91505092915050565b600080604083850312156124d257600080fd5b60006124e0858286016123a2565b92505060206124f1858286016121bd565b9150509250929050565b6000806000806060858703121561251157600080fd5b600061251f878288016123a2565b9450506020612530878288016123a2565b935050604085013567ffffffffffffffff81111561254d57600080fd5b612559878288016121e7565b925092505092959194509250565b61257081612886565b82525050565b61257f8161282f565b82525050565b61258e8161282f565b82525050565b600061259f82612813565b6125a9818561281e565b93506125b9818560208601612904565b6125c281612939565b840191505092915050565b6125d681612898565b82525050565b6125e5816128bc565b82525050565b60c0820160008201516126016000850182612691565b5060208201516126146020850182612691565b5060408201516126276040850182612576565b50606082015161263a6060850182612640565b50505050565b6060820160008201516126566000850182612576565b5060208201516126696020850182612576565b50604082015161267c6040850182612682565b50505050565b61268b8161286d565b82525050565b61269a8161287c565b82525050565b6126a98161287c565b82525050565b60006020820190506126c46000830184612585565b92915050565b60006020820190506126df6000830184612567565b92915050565b60006040820190506126fa6000830185612567565b61270760208301846126a0565b9392505050565b60006080820190506127236000830187612567565b61273060208301866126a0565b61273d60408301856126a0565b818103606083015261274f8184612594565b905095945050505050565b600060608201905061276f6000830186612585565b61277c6020830185612585565b61278960408301846126a0565b949350505050565b60006020820190506127a660008301846125cd565b92915050565b60006020820190506127c160008301846125dc565b92915050565b600060c0820190506127dc60008301846125eb565b92915050565b6000604051905081810181811067ffffffffffffffff8211171561280957612808612937565b5b8060405250919050565b600081519050919050565b600082825260208201905092915050565b600061283a8261284d565b9050919050565b60008115159050919050565b600073ffffffffffffffffffffffffffffffffffffffff82169050919050565b600062ffffff82169050919050565b6000819050919050565b6000612891826128e0565b9050919050565b60006128a3826128aa565b9050919050565b60006128b58261284d565b9050919050565b60006128c7826128ce565b9050919050565b60006128d98261284d565b9050919050565b60006128eb826128f2565b9050919050565b60006128fd8261284d565b9050919050565b60005b83811015612922578082015181840152602081019050612907565b83811115612931576000848401525b50505050565bfe5b6000601f19601f8301169050919050565b6129538161282f565b811461295e57600080fd5b50565b61296a81612841565b811461297557600080fd5b50565b6129818161286d565b811461298c57600080fd5b50565b6129988161287c565b81146129a357600080fd5b5056fe2d2d2d20616d6f756e74206f6620574d4154494320746f206265207377617070656420776974682055534443206f6e20554e4953574150202d2d2d2d2d2d2061667465722055534443202d3e20574d415449432073776170206f6e20554e495357415056332028425559494e472055534443206f6e20554e49535741505633292d2d2d2d2d2d20616674657220574d41544943202d3e555344432073776170206f6e20554e495357415056332028425559494e472055534443206f6e20554e4953574150563329202d2d2d2d2d2d2d2d2d2d2d2d2d2d2d2d2d2d2d2d2d62616c616e6365206f6620636f6e747261637420616674657220657865637574696e672074686520666c617368202d2d2d2d2d2d2d2d2d2d2d2d2d2d2d2d2d2d2d2d2d2d2d2d2d2d2d2d2d2d2d2d2d2d2d2d2d2d2d2d2d2d2d2d2d2d2d2d2d2d2d2d2d2d2d2d2d2d2d2d2d2d2d2d2d2d2d2d2d2d2d2d2d2d2d2d2d2d2d2d2d2d2d2d2d2d2d2d2d2d2d2d2d2d2d2d2d2d202d2d2d2d2d2d2d2d2d2d2d2d2d2d2d2d2d2d2d2d2d2d2d2d2d2d2d2d2d2d2d2d2da26469706673582212209abca5686da32f19305bae3356cf0c999ac3fbf28f4295441cefb6d35540e11b64736f6c63430007060033",
  "linkReferences": {},
  "deployedLinkReferences": {}
}